:100000000C943E000C945B000C945B000C945B0021
:100010000C945B000C945B000C945B000C945B00F4
:100020000C945B000C945B000C945B000C945B00E4
:100030000C945B000C945B000C945B000C945B00D4
:100040000C945B000C945B000C945D000C945B00C2
:100050000C945B000C945B000C945B000C945B00B4
:100060000C945B000C945B000C945B000C945B00A4
:100070000C945B000C945B000C945B0011241FBE7D
:10008000CFEFD4E0DEBFCDBF11E0A0E0B1E0E2EC05
:10009000FDE002C005900D92AA32B107D9F711E038
:1000A000AAE2B1E001C01D92A637B107E1F70E94B4
:1000B00086020C94DF060C9400001F920F920FB67C
:1000C0000F921124DF92EF92FF920F931F932F93C1
:1000D0003F934F935F936F937F938F939F93AF93D0
:1000E000BF93EF93FF93DF93CF93CDB7DEB72897FE
:1000F000DEBFCDBFD090ED008091EC00807F80937B
:10010000ED008091EE0085FF76C09091EF009F702A
:100110009E012F5F3F4FF90103C08091FA00819348
:100120008E2F821B8917CCF32091F3007091F2007F
:100130008091F1006091F000E72EFF2400E010E0D4
:10014000EDE0EE0CFF1C001F111FEA95D1F730E027
:1001500040E050E075E1220F331F441F551F7A9590
:10016000D1F7E20EF31E041F151F6695669566957E
:10017000E60EF11C011D111D90E025E0880F991F6E
:100180002A95E1F7AA2797FDA095BA2FE80EF91E48
:100190000A1F1B1F40912C0150912D01CA01A0E0A4
:1001A000B0E0E816F9060A071B0761F4998180E0C0
:1001B0002A81820F911D909339018093380181E04B
:1001C00080932A01465F5F4FCA01A0E0B0E0E816C5
:1001D000F9060A071B0761F4998180E02A81820FE2
:1001E000911D909339018093380181E080932B0118
:1001F00088E98093EF001092EE00D092ED002896EF
:10020000DEBFCDBFCF91DF91FF91EF91BF91AF9155
:100210009F918F917F916F915F914F913F912F911E
:100220001F910F91FF90EF90DF900F900FBE0F90F6
:100230001F9018950F931F938B019C011092ED0056
:100240008091DC0080FDFCCF1092EE00D901C80146
:1002500075E1B595A795979587957A95D1F7809390
:10026000F300D901C8016DE0B595A79597958795DD
:100270006A95D1F78093F200D901C80155E0B59590
:10028000A795979587955A95D1F78093F100F3E05C
:10029000000F111F221F331FFA95D1F70093F000B2
:1002A000E0E3F1E0242F30E02E0F3F1F03C08191E7
:1002B0008093FA00E217F307D1F740654093EF000F
:1002C0008091EE0086FD04C08091EE0080FFF8CFA3
:1002D0001092EF001092EE001F910F91089527E009
:1002E0008F3992079CF5A0E0B1E0E0E0F0E04D919D
:1002F0005C9111974817590724F112966D917C91E2
:10030000139768177907ECF4841B950B9C01A3E005
:10031000220F331FAA95E1F7641B750B880F991FF5
:10032000820F931F0E94B806CF01B3E0880F991F78
:10033000BA95E1F7EE0FFF1F8E0F9F1F680F791F11
:1003400007C031961296E431F10589F660E070E05D
:10035000CB01089588EC84B982E687B989E08AB92F
:1003600094E095B918B880EE8BB981E08093D800FD
:100370001092E50086E08093E2009093E30083E131
:100380008093E40090E0892F8295807F8093ED0038
:100390001092EF001092EE009F5F9630A1F780E17F
:1003A0008093ED0082E08093DE0080EA8093DB00A2
:1003B0001092F4008091F4008093F5008091F50094
:1003C0008093F6008091F6008093F70088E980938F
:1003D000EF008091D80082608093D800089589B1A1
:1003E000282F30E056E0369527955A95E1F720956D
:1003F0003095217030701A9902C02E5F3F4F4F998F
:1004000002C02C5F3F4F4D9902C0285F3F4FC9018A
:1004100043E0880F991F4A95E1F7220F331F820F9F
:10042000931F845D9E4F90932D0180932C0108951E
:1004300040E850E020E030E0682F70E0E5E0CA01DD
:1004400086239723892B11F0469A01C046988E2F58
:100450008A95F1F72B9A8E2F8A95F1F72B982F5FBB
:100460003F4F2830310519F056954795E8CF08954C
:1004700080E040E820E030E055E0952F9A95F1F7D4
:100480002B9A952F9A95F1F73499840F2B982F5F1B
:100490003F4F2830310511F04695EFCF089540E8E1
:1004A00050E020E030E0682F70E0E5E0CA018623EC
:1004B0009723892B11F02F9A01C02F988E2F8A95A0
:1004C000F1F7589A8E2F8A95F1F758982F5F3F4F82
:1004D0002830310519F056954795E8CF089580E00A
:1004E00040E820E030E055E0952F9A95F1F7589AD2
:1004F000952F9A95F1F71D99840F58982F5F3F4FCC
:100500002830310511F04695EFCF08952F923F9294
:100510004F925F926F927F928F929F92AF92BF9213
:10052000CF92DF92EF92FF920F931F93DF93CF93BF
:10053000CDB7DEB7C250D2400FB6F894DEBF0FBEC3
:10054000CDBF88EE93E028EC30E0F9013197F1F768
:100550000197D9F70E94AA010E94EF0180E090E084
:10056000FC01EE0FFF1FEE5BFE4F11821082019621
:1005700088319105A9F710923B0110923A0110922F
:100580003D0110923C0110923F0110923E011092E9
:1005900041011092400178942BE088E190E00FB681
:1005A000F894A895809360000FBE20936000992472
:1005B0008824EBE02E2E312C2C0E3D1ECE0184968D
:1005C000C350DE4F99838883CD5FD1403E010894AC
:1005D000611C711CFE013696C150DE4FF983E88321
:1005E000CF5FD140CE01CD96CF5FDD4F9983888319
:1005F000C150D2407DE7472E512C4C0E5D1EA89570
:10060000E0907201F09073010091740110917501F6
:100610006FEFA62E6FE0B62EC12CD12CAE20BF20DE
:10062000C022D1225CE016950795F794E7945A957D
:10063000D1F7459881E00E94180281E00E941802DB
:100640008E2D0E941802EF2CF02E012F11278E2DD7
:100650000E94180280E00E94180280E00E941802A6
:1006600080E00E941802459A08EC10E0C80101974A
:10067000F1F7459880E10E941802459A2E9881E092
:100680000E944F0281E00E944F028A2D0E944F0279
:10069000AB2CBC2CCD2CDD248A2D0E944F0280E097
:1006A0000E944F0280E00E944F0280E00E944F02B1
:1006B0002E9AC8010197F1F72E9880E10E944F020F
:1006C0002E9A80E49CE90197F1F7459880E30E9417
:1006D0001802459A2E9880E30E944F022E9A80E1DC
:1006E00097E20197F1F7459884E00E941802469A34
:1006F00081010E943802F80181938F01C350DE4FBF
:1007000088819981CD5FD140E817F90791F7459A23
:1007100088EC90E00197F1F7459888E00E94180274
:10072000469A83010E943802F80181938F01C150DB
:10073000DE4F88819981CF5FD140E817F90791F7A3
:10074000459A88EC90E00197F1F72E9884E00E949A
:100750004F022F9A8E010C5D1F4F0E946F02F8010D
:1007600081938F01CF5FDD4F88819981C150D24045
:10077000E817F90791F72E9A88EC90E00197F1F7C6
:100780002E9888E00E944F022F9A8E010A5F1F4F19
:100790000E946F02F80181938F01E215F305C1F702
:1007A0002E9A88EC90E00197F1F7092D10E0B8013E
:1007B000660F771F640D751DEE24FF24D701B595D4
:1007C000A795E5E2F0E0EC0FFD1FEA0FFB1F40816B
:1007D000242F30E02F703070322F2227E4E2F0E037
:1007E000EC0FFD1FEA0FFB1F8081280F311DC9018F
:1007F000880F991F820F931F95958795FB01918311
:10080000808342954F7086E290E08C0F9D1FA80F69
:10081000B91F8C9190E054E0880F991F5A95E1F729
:10082000840F911D9C01220F331F280F391F35950E
:100830002795318B208BE6E0F0E0EE0EFF1E605E28
:100840007F4FF4E2EF16F10409F0B8CFB801605A17
:100850007F4F660F771F640D751DEE24FF24D701AF
:10086000B595A795ECE0F0E0EC0FFD1FEA0FFB1F3C
:100870004081242F30E02F703070322F2227F10179
:10088000EA0FFB1F8081280F311DC901880F991FB6
:10089000820F931F95958795FB01918380834295E5
:1008A0004F708DE090E08C0F9D1FA80FB91F8C91A9
:1008B00090E024E0880F991F2A95E1F7840F911D9D
:1008C0009C01220F331F280F391F35952795318B37
:1008D000208BE6E0F0E0EE0EFF1E605E7F4FF4E25C
:1008E000EF16F10409F0BBCF3F81F801EE0FFF1FB7
:1008F000E60DF71D832F90E08F709070982F88275A
:100900002E81820F911D95AF84AFF8013896EE0FBE
:10091000FF1FE60DF71D32953F70888590E024E0BB
:10092000880F991F2A95E1F7830F911D95AF84AF2A
:100930003A81005F1F4FF801EE0FFF1FE60DF71D14
:10094000832F90E08F709070982F88272981820FD5
:10095000911D95AF84AF085F1F4F000F111F060D4B
:10096000171D32953F708B8190E064E0880F991FCE
:100970006A95E1F7830F911DF80195AF84AF9394C9
:10098000F7E0F91508F000C1839423E0281508F476
:100990008824A0907201B0907301C0907401D0902F
:1009A00075019924EE24FF2489C08191919162E020
:1009B00070E00E94B806060F171F2F5F3F4F2830C8
:1009C000310599F71595079515950795F701EE0FE0
:1009D000FF1FEE5BFE4F118300838081918118160B
:1009E0001906B4F480819181069691838083E11485
:1009F000F10421F08CE0E816F10451F4F701EE0F58
:100A0000FF1FEE5BFE4F808191810397918380836E
:100A1000F701EE0FFF1FEE5BFE4F80819181895839
:100A2000934114F011821082F701EE0FFF1FEE5B6D
:100A3000FE4F808191811816190614F4992493941D
:100A4000F701EE0FFF1FEE5BFE4F20813181809199
:100A500038019091390182179307B8F480913801D9
:100A600090913901892B89F081E090E00E2C02C031
:100A7000880F991F0A94E2F7AA2797FDA095BA2F2D
:100A8000A82AB92ACA2ADB2A12C081E090E00E2CDB
:100A900002C0880F991F0A94E2F780959095AA27C3
:100AA00097FDA095BA2FA822B922CA22DB2208946A
:100AB000E11CF11C88E1E816F10469F0F70104E09B
:100AC000EE0FFF1F0A95E1F7E40DF51D00E010E0C1
:100AD00020E030E06ACFA0927201B0927301C09220
:100AE0007401D092750160E070E01AC0819191911B
:100AF000480F591F2F5F3F4F28303105B9F713E0DA
:100B0000559547951A95E1F7FB01EE0FFF1FE65C3F
:100B1000FE4F518340836F5F7F4F6430710589F0D2
:100B2000FB01A4E0EE0FFF1FAA95E1F78DE390E033
:100B30008C0F9D1FE80FF91F40E050E020E030E0EF
:100B4000D5CF5B98419A282D30E080E090E0A11449
:100B5000B104C104D10411F081E090E08223932319
:100B6000892B11F05B9A0FC0992029F4419820FF3E
:100B70000AC05B9A09C080912E0190912F01809745
:100B800011F420FD4198992480912E0190912F011C
:100B90008032910534F4019690932F0180932E01B9
:100BA00004C0109239011092380180912A018823E3
:100BB00009F466C010922A0110922F0110922E01A2
:100BC00000E010E0EE24FF2460EDC62E67E0D62E94
:100BD00030C0F901EE0FFF1FEE5BFE4F8081918167
:100BE000892F990F990B8C938081918111968C9309
:100BF00011972F5F3F4F129691E0A833B90749F73D
:100C000060912C0170912D016F5F7F4F600F711FFC
:100C100080E090E048E00E941A01C6010197F1F7D8
:100C20000F5F1F4FE4E0F0E0EE0EFF1E03301105F2
:100C300021F0A0E3B1E09701CCCF80913A019091EF
:100C40003B010E946F018093300180913C019091A3
:100C50003D010E946F018093310110923701109283
:100C60003601109235011092340110923301109226
:100C7000320160912C0170912D016C5F7F4F6BC030
:100C800080912B01882309F46CC010922B011092E3
:100C90002F0110922E0100E010E07CE0E72EF12CF5
:100CA00060EDC62E67E0D62E30C0F901EE0FFF1FB3
:100CB000EE5BFE4F80819181892F990F990B8C9368
:100CC0008081918111968C9311972F5F3F4F1296DF
:100CD000F1E0A833BF0749F760912C0170912D0115
:100CE000655F7F4F600F711F80E090E048E00E94D9
:100CF0001A01C6010197F1F70F5F1F4F84E090E0E2
:100D0000E80EF91E0330110521F0A0E3B1E09701D0
:100D1000CCCF80913E0190913F010E946F01809362
:100D2000300180914001909141010E946F018093B8
:100D30003101109237011092360110923501109254
:100D40003401109233011092320160912C017091A4
:100D50002D01625F7F4F80E090E048E00E941A0121
:100D600004C080E49FE10197F1F70E94EF0147CCB6
:100D700097FB092E07260AD077FD04D00CD006D0A9
:100D800000201AF4709561957F4F0895F6F79095BD
:100D900081959F4F0895AA1BBB1B51E107C0AA1F55
:100DA000BB1FA617B70710F0A61BB70B881F991F0C
:100DB0005A95A9F780959095BC01CD010895F894B6
:020DC000FFCF63
:100DC200C3079A075407E3063F066A0574047A03C9
:100DD2009C02EC016001F900B0007E005B00410062
:0A0DE200300024001C001400100073
:00000001FF
