:100000000C9447000C94E8060C94E8060C94E8065F
:100010000C94E8060C94E8060C94E8060C94E806A8
:100020000C94E8060C94E8060C94E8060C94E80698
:100030000C94E8060C94E8060C94E8060C94E80688
:100040000C94E8060C94E8060C9492040C94E806D0
:100050000C94E8060C94E8060C94E8060C94E80668
:100060000C94E8060C94E8060C94E8060C94E80658
:100070000C94E8060C94E8060C94E80601000130A4
:10008000800130015A000DDE015A017680001124F2
:100090001FBECFEFD4E0DEBFCDBFECE7F0E040E025
:1000A00017C0B591A59135912591059107FD0CC01B
:1000B00095918591EF01F92FE82F05900D92A217E8
:1000C000B307D9F7FE0104C01D92A217B307E1F7E9
:1000D000ED38F40731F70E9471000C94DD06F894B6
:0200E000FFCF50
:1000E200CF93DF93CDB7DEB7CC5FD1400FB6F89494
:1000F200DEBF0FBECDBF87EA91E60197F1F700C0E0
:1001020000000E94C3050E94460680E090E0FC01C8
:10011200EE0FFF1FE050FF4F1182108201968831CF
:100122009105A9F7EAE5F1E01182108213821282A9
:10013200158214821782168278949BE088E10FB6AA
:10014200F894A895809360000FBE90936000312CC4
:10015200F12C8E01035C1F4FA89540906A015090CC
:100162006B0160906C0170906D01630152019FE020
:10017200B922CC24DD24032E3CE076946794579474
:1001820047943A95D1F7302D459881E00E9469064F
:1001920081E00E946906842D0E946906852D0E94D5
:1001A200690680E00E94690680E00E94690680E09C
:1001B2000E946906459AA1E2AA95F1F700004598C6
:1001C20080E10E946906459A2E9881E00E9480068D
:1001D20081E00E9480068A2D0E9480068B2D0E945B
:1001E200800680E00E94800680E00E94800680E017
:1001F2000E9480062E9AB1E2BA95F1F700002E987D
:1002020080E10E9480062E9AE7E8F3E13197F1F748
:1002120000C00000459880E30E946906459A2E9826
:1002220080E30E9480062E9A81EE94E00197F1F716
:1002320000C00000459884E00E946906469ADE01EB
:1002420011965D016E01BAE1CB0ED11C0E94BF0670
:10025200F50181935F01CE16DF06C1F7459AF1E2FF
:10026200FA95F1F70000459888E00E946906469ADF
:100272005E0123E3A20EB11C3E0138E3630E711C42
:100282000E94BF06D5018D935D016A167B06C1F7F8
:10029200459AB1E2BA95F1F700002E9884E00E94E7
:1002A20080062F9A5E01E3E3AE0EB11C0E94CE06D9
:1002B200D6018D936D01AA15BB05C1F72E9AB1E245
:1002C200BA95F1F700002E9888E00E9480062F9AD6
:1002D2000E94CE06F30181933F010E171F07C1F75B
:1002E2002E9AF1E2FA95F1F700006F2D70E0660F99
:1002F200771F600F711F40E050E0CF2CD12C3601E8
:100302009A01552314F42F5F3F4F35952795EBE162
:10031200F0E0EC0FFD1FE20FF31FE080FB018E2DDA
:100322008F7090E0982F88270F2EFAE1AF2EB12C14
:10033200F02DAC0EBD1EA20EB31ED501BC908B0DCE
:10034200911D5C01AA0CBB1C8A0D9B1D99230CF408
:10035200019695958795918380838CE190E08C0F2F
:100362009D1F280F391FD9012C91E694E694E6943B
:10037200E6948E2D90E0B0E12B9F800D911D11240B
:100382009C01220F331F820F931F99230CF40196B5
:1003920095958795918B808B4A5F5F4F605E7F4F0B
:1003A2004432510509F0ABCF4F2D50E0405A5F4F18
:1003B200440F551F400F511F20E030E069013323E5
:1003C2001CF4EFEFCE1ADE0AD594C794E2E0F0E017
:1003D200EC0FFD1FEC0DFD1D8081FA01682F6F707F
:1003E20070E0762F6627AA24A394B12CAC0EBD1E12
:1003F200AC0CBD1CD5019C91690F711D5B01AA0C4F
:10040200BB1C6A0D7B1D772314F46F5F7F4F7595BC
:1004120067957183608363E070E06C0F7D1FC60E89
:10042200D71ED6016C9182958F7090E0B0E16B9FE0
:10043200800D911D1124BC01660F771F860F971F37
:1004420099230CF4019695958795918B808B2A5F61
:100452003F4F405E5F4F2432310509F0AFCF89AD87
:10046200F301EE0FFF1F2DEB31E02C0F3D1FE20FCA
:10047200F31F282F2F7030E0322F222798AD290F3B
:10048200311D31832083F3013896EE0FFF1F6DEB90
:1004920071E06C0F7D1FE60FF71F2AAD82958F70FA
:1004A20090E070E1279F800D911D1124918380833C
:1004B2008CA9F3017096EE0FFF1FADEBB1E0AC0F0C
:1004C200BD1FEA0FFB1F282F2F7030E0322F22278B
:1004D2009BA9290F311D31832083D3015896AA0F7E
:1004E200BB1FEDEBF1E0EC0FFD1FAE0FBF1F2DA9FF
:1004F20082958F7090E0F0E12F9F800D911D112465
:100502008D939C93F39427E02F1508F0F3C0339456
:1005120033E0331508F4312C40906A0150906B019E
:1005220060906C0170906D01FE01FD96A0E0B0E05C
:10053200EE24E394F12C91C041915191CA01992387
:100542000CF4019695958795280F391F6E177F0732
:1005520099F73595279535952795FD01EE0FFF1FE4
:10056200E050FF4F31832083808191811816190654
:10057200CCF4FD01EE0FFF1FE050FF4F808191810F
:10058200069691838083109719F0AC30B10551F42F
:10059200FD01EE0FFF1FE050FF4F80819181039715
:1005A20091838083FD01EE0FFF1FE050FF4F80819A
:1005B2009181893893413CF0FD01EE0FFF1FE0501D
:1005C200FF4F11821082FD01EE0FFF1FE050FF4F1F
:1005D200808191812081318180916E0190916F01A2
:1005E20082179307B0F480916E0190916F01892B6D
:1005F20081F097010A2E02C0220F331F0A94E2F7FC
:100602004901330FAA08BB08482859286A287B28C1
:1006120011C097010A2E02C0220F331F0A94E2F77B
:10062200209530954901330FAA08BB08482059206C
:100632006A207B201196FB01A831B10571F440922A
:100642006A0150926B0160926C0170926D01FE0121
:10065200E354FE4F60E070E020C0BF01605F7F4F57
:1006620020E030E069CF21913191820F931FE4178E
:10067200F507C9F7959587959595879595958795EA
:10068200FB01EE0FFF1FE65AFE4F918380836F5FDF
:100692007F4FFA016430710531F0AF01405F5F4F67
:1006A20080E090E0E0CF5B98419A21E030E08091D9
:1006B2006A0190916B01A0916C01B0916D01892B3F
:1006C2008A2B8B2B11F420E030E0832D90E08223E3
:1006D2009323892B19F05B9AF12C0CC08091700145
:1006E20090917101809729F430FE11C04198F12C4C
:1006F20001C0F12C809170019091710180329105BD
:100702003CF40196909371018093700105C0F12C25
:1007120010926F0110926E0180917501882309F485
:100722007CC0109275011092710110927001612CBF
:10073200712CA12CB12C0F2EFAE6CF2EF1E0DF2E78
:10074200F02D2EC0DC01AA0FBB1FA050BF4F2D9170
:100752003C91119730832D913C91218301963296E1
:10076200EC15FD0579F760917201709173016F5F6D
:100772007F4F6A0D7B1D80E090E048E00E945905A2
:1007820089EF90E00197F1F700C000009FEFA91AEE
:10079200B90AA4E06A0E711CB3E0AB16B10421F0F1
:1007A200E2E6F1E0C301CECF0F2EFAE5AF2EF1E083
:1007B200BF2EF02DF501808191810E9409060F2E36
:1007C200F2E6CF2EF1E0DF2EF02DD6018C93F5016B
:1007D200828193810E940906D60111968C9311970A
:1007E20017961C92179716961C92169715961C929E
:1007F200159714961C92149713961C92139712969F
:100802001C9260917201709173016C5F7F4F80E066
:1008120090E048E00E94590581C0809174018823CC
:1008220009F476C010927401109271011092700155
:100832000F2EFCE06F2E712CF02DA12CB12C0F2E5F
:10084200FAE6CF2EF1E0DF2EF02D2EC0DC01AA0F4A
:10085200BB1FA050BF4F2D913C91119730832D911A
:100862003C91218301963296EC15FD0579F7609152
:10087200720170917301655F7F4F6A0D7B1D80E08D
:1008820090E048E00E945905E9EFF0E03197F1F776
:1008920000C00000FFEFAF1ABF0A24E0620E711C15
:1008A20033E0A316B10421F0E2E6F1E0C301CECFBA
:1008B2000F2EFAE5AF2EF1E0BF2EF02DD5011496E2
:1008C2008D919C9115970E9409060F2EF2E6CF2E6C
:1008D200F1E0DF2EF02DF6018083D50116968D9181
:1008E2009C9117970E940906F6018183178216824E
:1008F20015821482138212826091720170917301C7
:10090200625F7F4F80E090E048E00E94590506C098
:1009120087EE93E00197F1F700C000000E944606BF
:020922001BCCEC
:100924000F920FB60F921F921124CF92DF92EF9283
:10093400FF922F933F934F935F936F937F938F9384
:100944009F93AF93BF93EF93FF93CF93DF93CDB771
:10095400DEB72897DEBFCDBFEDEEF0E030818091A9
:10096400EC00807F80838091EE0085FF7FC08091C2
:10097400EF008F70181674F4FE013196815090E0E8
:1009840001968E0F9F1FAAEFB0E02C912193E817D8
:10099400F907D9F7C090F3009091F2004091F1006B
:1009A4002091F000D12CE12CF12C0B2EB5E1CC0CD4
:1009B400DD1CEE1CFF1CBA95D1F7B02D892F90E0F9
:1009C400A0E0B0E0072E7DE0880F991FAA1FBB1F8F
:1009D4007A95D1F7702D8C0D9D1DAE1DBF1D60E263
:1009E400469FA0011124052E000C660B770B840F83
:1009F400951FA61FB71F269526952695820F911D34
:100A0400A11DB11D40917201509173016A01E12C45
:100A1400F12C8C159D05AE05BF0571F4698170E05C
:100A2400762F66272A81620F711D70936F01609380
:100A34006E0121E020937501465F5F4F60E070E036
:100A440084179507A607B70771F4898190E0982F5A
:100A540088272A81820F911D90936F0180936E01E4
:100A640081E08093740188E98093EF001092EE0096
:100A74003093ED0028960FB6F894DEBF0FBECDBFBD
:100A8400DF91CF91FF91EF91BF91AF919F918F91A2
:100A94007F916F915F914F913F912F91FF90EF90D4
:0E0AA400DF90CF901F900F900FBE0F9018950F
:100AB2000F931F938B019C011092ED00ECEDF0E07F
:100AC200808180FDFDCF1092EE00D901C801072E72
:100AD20075E1B595A795979587957A95D1F7702D7C
:100AE2008093F300D901C801072E7DE0B595A79543
:100AF200979587957A95D1F7702D8093F200D90159
:100B0200C801689414F8B595A7959795879516949A
:100B1200D1F78093F100000F111F221F331F000F26
:100B2200111F221F331F000F111F221F331F00939B
:100B3200F000642F70E01616170694F480E090E03F
:100B420020E0EAEFF0E0DC01AE59BE4F8C918083E9
:100B52002F5F822F022E000C990B861797079CF3AA
:100B620040654093EF00EEEEF0E0808186FD03C029
:100B7200808180FFFACF1092EF001092EE001F9159
:040B82000F91089532
:100B8600CF93DF9388EC84B982E687B989E08AB986
:100B960084E085B918B890EE9BB991E09093D8009F
:100BA6001092E50096E09093E2008093E30083E1E3
:100BB6008093E40080E0CDEED0E0AFEEB0E0EEEE64
:100BC600F0E0982F9295907F98831C9210828F5F09
:100BD6008630B9F780E18093ED0082E08093DE00F5
:100BE60080EA8093DB001092F4001092F5001092D8
:100BF600F6001092F70088E98093EF00E8EDF0E048
:0C0C0600808182608083DF91CF9108958F
:100C12008F3927E09207B4F5E0E3F1E020E030E01D
:100C220041915191481759072CF1608171816817E0
:100C3200790704F5841B950BFC01EE0FFF1F880F4B
:100C4200991F880F991F880F991F8E0F9F1F641B72
:100C5200750B0E949706C901880F991F220F331F37
:100C6200220F331F220F331F280F391FCB01820F90
:100C7200931F08952F5F3F4F2431310589F680E09D
:0A0C820090E0089580E090E00895EE
:100C8C0089B1829586958695837091E08927282F66
:100C9C00217030E0C9011A9B02964F9B04964D9B24
:100CAC0008969C01220F331F880F991F880F991FDC
:100CBC00880F991F820F931F845D9E4F9093730131
:060CCC00809372010895FF
:100CD20028E030E040E850E090E0BC016423752356
:100CE200672B11F0469A01C0469800C02B9A00C0AB
:0E0CF2002B98569547952150310979F70895B2
:100D000028E030E040E850E090E0BC016423752327
:100D1000672B11F02F9A01C02F9800C0589A00C07D
:0E0D20005898569547952150310979F7089556
:100D2E0097FB072E16F4009407D077FD09D00E948A
:100D3E00AB0607FC05D03EF4909581959F4F089524
:080D4E00709561957F4F089537
:100D5600AA1BBB1B51E107C0AA1FBB1FA617B707DB
:100D660010F0A61BB70B881F991F5A95A9F78095F7
:080D76009095BC01CD01089528
:100D7E0028E030E090E880E000C02B9A00C0349963
:0E0D8E00890F2B98969521503109B1F70895E1
:100D9C0028E030E090E880E000C0589A00C01D992F
:0E0DAC00890F5898969521503109B1F7089596
:100DBA00EC010E94ED060E94EC06CE010E94EE06AE
:060DCA00CE010E94EA06C2
:040DD0000C9400007F
:040DD4000E946F000A
:020DD80008957C
:020DDA0008957A
:020DDC00089578
:100DDE00C3079A075407E3063F066A0574047A03AD
:100DEE009C02EC016001F900B0007E005B00410046
:0A0DFE00300024001C001400100057
:00000001FF
